:070DED00D2A4D2A3C2A3228D
:090DE400C2A4C2A3D2A4D2A3222E
:020C9C00AD07A2
:100C9E007B07EB3395E0C3648094804022C2A47E30
:100CAE00007401A803088005C333CE33CED8F9FFF4
:0F0CBE00EDF582EF558224FF92A3D2A41B80D3C1
:010CCD002204
:100D2D00E4FF7E07EE3395E0C3648094804017D2D4
:100D3D00A430A30DA8067401088002C333D8FC4269
:060D4D0007C2A41E80DEB7
:010D5300227D
:100DAB00C2A4D2A3D2A40000000020A304C2A4C3F7
:050DBB0022C2A4D322B6
:070DF400C2A4D2A3D2A42285
:100CFE00D3EF9400EE940040257DFAEDD39400746A
:100D0E0080948040031D80F37DF7EDD394007480B2
:0E0D1E00948040031D80F3EF1F70D51E80D21D
:010D2C0022A4
:050E020020202020006B
:100C680001260001270001250001210101230101BE
:100C780024010122011C2853554E004D4F4E0054AB
:100C880055450057454400544855004652490053BD
:030C9800415400C4
:10094900120DFB120D79120A691208007D027FD07F
:10095900120BA68F267D017FD0120BA68F27E4FDEF
:100969007FD0120BA68F257D037FD0120BA68F2275
:100979007D047FD0120BA68F217D057FD0120BA697
:100989008F237D067FD0120BA68F247F80120DD274
:10099900E52175F00A842430FF120DC0E52175F0B8
:1009A9000A84E5F02430FF120DC07F2F120DC0E537
:1009B9002375F00A842430FF120DC0E52375F00A6F
:1009C90084E5F02430FF120DC07F2F120DC0E524FD
:1009D90075F00A842430FF120DC0E52475F00A84ED
:1009E900E5F02430FF120DC07BFF7A0E7902120D5B
:1009F90054E52275F004A42424F9E4FAFB120D54F9
:100A09007FC0120DD2E52675F00A842430FF120D3D
:100A1900C0E52675F00A84E5F02430FF120DC07F89
:100A29003A120DC0E52775F00A842430FF120DC073
:100A3900E52775F00A84E5F02430FF120DC07F3AEE
:100A4900120DC0E52575F00A842430FF120DC0E5AA
:100A59002575F00A84E5F02430FF120DC00209550E
:060CCE008F0B8D0C8B0D55
:100CD400120DEDAF0B120C9C120DAB9201200117FB
:100CE400AF0C120C9C120DAB920120010AAF0D1235
:0A0CF4000C9C120DAB9201020DE4FE
:040BA6008F0B8D0C18
:100BAA00120DEDAF0B120C9C120DAB920120012815
:100BBA00AF0C120C9C120DAB920120011B120DED11
:100BCA00E50B4401FF120C9C120DAB9201200108A7
:0D0BDA00120D2D8F0D120DF4120DE4AF0D54
:010BE70022EB
:100DC0008F80D2A0C2A1D2A27F027E00120CFEC2EE
:020DD000A2225D
:100DD2008F80C2A0C2A1D2A27F027E00120CFEC2EC
:020DE200A2224B
:100D79007F01120DD27F02120DD27F38120DD27F60
:090D890080120DD27F0C020DD284
:100D54008B0B8A0C890DAB0BAA0CA90D120D92609A
:100D640013050DE50D7002050C14F9120D92FF1216
:050D74000DC080E22229
:100BE80053657420686F757200536574204D696E83
:100BF8007574650057686963682064617920697352
:100C08002069743F3F005365742044617465005344
:100C18006574204D6F6E7468005365742059656162
:020C2800720058
:100A6900E4F526F527F5257F01120DD27F80120DB9
:100A7900D27BFF7A0B79E8120D547FC0120DD2E5B3
:100A89002675F00A842430FF120DC0E52675F00A98
:100A990084E5F02430FF120DC03091032090FA054F
:100AA900263090FD2091D315263091FD7F01120D3E
:100AB900D27F80120DD27BFF7A0B79F1120D547F10
:100AC900C0120DD2E52775F00A842430FF120DC03B
:100AD900E52775F00A84E5F02430FF120DC0309146
:100AE900032090FA05273090FD2091D315273091E6
:100AF900FD7F01120DD2AB267D027FD0120CCEAB49
:100B0900277D017FD0120CCEAB25E4FD7FD0020CEE
:010B1900CE0D
:100800007521017523017524017522017F01120DE7
:10081000D27F80120DD27BFF7A0B79FC120D547FB0
:10082000C0120DD2E52275F004A42424F9E4FAFBE9
:10083000120D543091032090FA05223090FDD3E53B
:1008400022940774809480400575220180D1209104
:10085000CE15223091FD7F01120DD27F80120DD274
:100860007BFF7A0C790E120D547FC0120DD2E52158
:1008700075F00A842430FF120DC0E52175F00A845A
:10088000E5F02430FF120DC03091032090FA0521CD
:100890003090FD2091D315213091FD7F01120DD2B2
:1008A0007F80120DD27BFF7A0C7917120D547FC016
:1008B000120DD2E52375F00A842430FF120DC0E535
:1008C0002375F00A84E5F02430FF120DC030910347
:1008D0002090FA05233090FD2091D315233091FD0F
:1008E0007F01120DD27F80120DD27BFF7A0C79210D
:1008F000120D547FC0120DD2E52475F00A84243005
:10090000FF120DC0E52475F00A84E5F02430FF12D3
:100910000DC03091032090FA05243090FD2091D332
:1009200015243091FDAB227D037FD0120CCEAB217C
:100930007D047FD0120CCEAB237D057FD0120CCE70
:09094000AB247D067FD0020CCE31
:070DFB00D2A8D2AFD288227A
:03000300020C2AC2
:100C2A00C0E0C0F0C083C082C0D075D000C000C090
:100C3A0001C002C003C004C005C006C007120A6989
:100C4A00120800D007D006D005D004D003D002D0B5
:0E0C5A0001D000D0D0D082D083D0F0D0E032D4
:03000000020B1AD6
:0C0B1A00787FE4F6D8FD758143020B6182
:100D9200BB010689828A83E0225002E722BBFE025F
:090DA200E32289828A83E4932292
:100B2600020949E493A3F8E493A34003F68001F293
:100B360008DFF48029E493A3F85407240CC8C333D0
:100B4600C4540F4420C8834004F456800146F6DF9F
:100B5600E4800B0102040810204080900C68E47EBB
:100B6600019360BCA3FF543F30E509541FFEE49394
:100B7600A360010ECF54C025E060A840B8E493A35B
:100B8600FAE493A3F8E493A3C8C582C8CAC583CA86
:100B9600F0A3C8C582C8CAC583CADFE9DEE780BE3E
:010C9B000058
:00000001FF
